{
  "contractName": "Amaranthus",
  "abi": [
    {
      "inputs": [],
      "stateMutability": "nonpayable",
      "type": "constructor"
    },
    {
      "anonymous": false,
      "inputs": [
        {
          "indexed": true,
          "internalType": "address",
          "name": "owner",
          "type": "address"
        },
        {
          "indexed": true,
          "internalType": "address",
          "name": "spender",
          "type": "address"
        },
        {
          "indexed": false,
          "internalType": "uint256",
          "name": "value",
          "type": "uint256"
        }
      ],
      "name": "Approval",
      "type": "event"
    },
    {
      "anonymous": false,
      "inputs": [
        {
          "indexed": true,
          "internalType": "address",
          "name": "from",
          "type": "address"
        },
        {
          "indexed": true,
          "internalType": "address",
          "name": "to",
          "type": "address"
        },
        {
          "indexed": false,
          "internalType": "uint256",
          "name": "value",
          "type": "uint256"
        }
      ],
      "name": "Transfer",
      "type": "event"
    },
    {
      "inputs": [
        {
          "internalType": "address",
          "name": "owner",
          "type": "address"
        },
        {
          "internalType": "address",
          "name": "spender",
          "type": "address"
        }
      ],
      "name": "allowance",
      "outputs": [
        {
          "internalType": "uint256",
          "name": "",
          "type": "uint256"
        }
      ],
      "stateMutability": "view",
      "type": "function"
    },
    {
      "inputs": [
        {
          "internalType": "address",
          "name": "spender",
          "type": "address"
        },
        {
          "internalType": "uint256",
          "name": "amount",
          "type": "uint256"
        }
      ],
      "name": "approve",
      "outputs": [
        {
          "internalType": "bool",
          "name": "",
          "type": "bool"
        }
      ],
      "stateMutability": "nonpayable",
      "type": "function"
    },
    {
      "inputs": [
        {
          "internalType": "address",
          "name": "account",
          "type": "address"
        }
      ],
      "name": "balanceOf",
      "outputs": [
        {
          "internalType": "uint256",
          "name": "",
          "type": "uint256"
        }
      ],
      "stateMutability": "view",
      "type": "function"
    },
    {
      "inputs": [],
      "name": "decimals",
      "outputs": [
        {
          "internalType": "uint8",
          "name": "",
          "type": "uint8"
        }
      ],
      "stateMutability": "view",
      "type": "function"
    },
    {
      "inputs": [
        {
          "internalType": "address",
          "name": "spender",
          "type": "address"
        },
        {
          "internalType": "uint256",
          "name": "subtractedValue",
          "type": "uint256"
        }
      ],
      "name": "decreaseAllowance",
      "outputs": [
        {
          "internalType": "bool",
          "name": "",
          "type": "bool"
        }
      ],
      "stateMutability": "nonpayable",
      "type": "function"
    },
    {
      "inputs": [
        {
          "internalType": "address",
          "name": "spender",
          "type": "address"
        },
        {
          "internalType": "uint256",
          "name": "addedValue",
          "type": "uint256"
        }
      ],
      "name": "increaseAllowance",
      "outputs": [
        {
          "internalType": "bool",
          "name": "",
          "type": "bool"
        }
      ],
      "stateMutability": "nonpayable",
      "type": "function"
    },
    {
      "inputs": [],
      "name": "name",
      "outputs": [
        {
          "internalType": "string",
          "name": "",
          "type": "string"
        }
      ],
      "stateMutability": "view",
      "type": "function"
    },
    {
      "inputs": [],
      "name": "symbol",
      "outputs": [
        {
          "internalType": "string",
          "name": "",
          "type": "string"
        }
      ],
      "stateMutability": "view",
      "type": "function"
    },
    {
      "inputs": [],
      "name": "totalSupply",
      "outputs": [
        {
          "internalType": "uint256",
          "name": "",
          "type": "uint256"
        }
      ],
      "stateMutability": "view",
      "type": "function"
    },
    {
      "inputs": [
        {
          "internalType": "address",
          "name": "to",
          "type": "address"
        },
        {
          "internalType": "uint256",
          "name": "amount",
          "type": "uint256"
        }
      ],
      "name": "transfer",
      "outputs": [
        {
          "internalType": "bool",
          "name": "",
          "type": "bool"
        }
      ],
      "stateMutability": "nonpayable",
      "type": "function"
    },
    {
      "inputs": [
        {
          "internalType": "address",
          "name": "from",
          "type": "address"
        },
        {
          "internalType": "address",
          "name": "to",
          "type": "address"
        },
        {
          "internalType": "uint256",
          "name": "amount",
          "type": "uint256"
        }
      ],
      "name": "transferFrom",
      "outputs": [
        {
          "internalType": "bool",
          "name": "",
          "type": "bool"
        }
      ],
      "stateMutability": "nonpayable",
      "type": "function"
    },
    {
      "inputs": [
        {
          "internalType": "address",
          "name": "to",
          "type": "address"
        },
        {
          "internalType": "uint256",
          "name": "value",
          "type": "uint256"
        },
        {
          "internalType": "address",
          "name": "_counter",
          "type": "address"
        },
        {
          "internalType": "uint256",
          "name": "_tokenId",
          "type": "uint256"
        }
      ],
      "name": "sendTransaction",
      "outputs": [],
      "stateMutability": "nonpayable",
      "type": "function"
    },
    {
      "inputs": [
        {
          "internalType": "address",
          "name": "account",
          "type": "address"
        }
      ],
      "name": "getLockedUntil",
      "outputs": [
        {
          "internalType": "uint256",
          "name": "",
          "type": "uint256"
        }
      ],
      "stateMutability": "view",
      "type": "function"
    }
  ],
  "bytecode": "0x60806040526404a817c8006006553480156200001a57600080fd5b506040518060400160405280600a81526020017f416d6172616e74687573000000000000000000000000000000000000000000008152506040518060400160405280600381526020017f414153000000000000000000000000000000000000000000000000000000000081525081600390805190602001906200009f92919062000282565b508060049080519060200190620000b892919062000282565b505050620000fc33620000d06200010260201b60201c565b60ff16600a620000e19190620004bf565b600654620000f0919062000510565b6200010b60201b60201c565b620006e3565b60006012905090565b600073ffffffffffffffffffffffffffffffffffffffff168273ffffffffffffffffffffffffffffffffffffffff16036200017d576040517f08c379a00000000000000000000000000000000000000000000000000000000081526004016200017490620005d2565b60405180910390fd5b62000191600083836200027860201b60201c565b8060026000828254620001a59190620005f4565b92505081905550806000808473ffffffffffffffffffffffffffffffffffffffff1673ffffffffffffffffffffffffffffffffffffffff168152602001908152602001600020600082825401925050819055508173ffffffffffffffffffffffffffffffffffffffff16600073ffffffffffffffffffffffffffffffffffffffff167fddf252ad1be2c89b69c2b068fc378daa952ba7f163c4a11628f55a4df523b3ef8360405162000258919062000662565b60405180910390a362000274600083836200027d60201b60201c565b5050565b505050565b505050565b8280546200029090620006ae565b90600052602060002090601f016020900481019282620002b4576000855562000300565b82601f10620002cf57805160ff191683800117855562000300565b8280016001018555821562000300579182015b82811115620002ff578251825591602001919060010190620002e2565b5b5090506200030f919062000313565b5090565b5b808211156200032e57600081600090555060010162000314565b5090565b7f4e487b7100000000000000000000000000000000000000000000000000000000600052601160045260246000fd5b60008160011c9050919050565b6000808291508390505b6001851115620003c05780860481111562000398576200039762000332565b5b6001851615620003a85780820291505b8081029050620003b88562000361565b945062000378565b94509492505050565b600082620003db5760019050620004ae565b81620003eb5760009050620004ae565b81600181146200040457600281146200040f5762000445565b6001915050620004ae565b60ff84111562000424576200042362000332565b5b8360020a9150848211156200043e576200043d62000332565b5b50620004ae565b5060208310610133831016604e8410600b84101617156200047f5782820a90508381111562000479576200047862000332565b5b620004ae565b6200048e84848460016200036e565b92509050818404811115620004a857620004a762000332565b5b81810290505b9392505050565b6000819050919050565b6000620004cc82620004b5565b9150620004d983620004b5565b9250620005087fffffffffffffffffffffffffffffffffffffffffffffffffffffffffffffffff8484620003c9565b905092915050565b60006200051d82620004b5565b91506200052a83620004b5565b9250817fffffffffffffffffffffffffffffffffffffffffffffffffffffffffffffffff048311821515161562000566576200056562000332565b5b828202905092915050565b600082825260208201905092915050565b7f45524332303a206d696e7420746f20746865207a65726f206164647265737300600082015250565b6000620005ba601f8362000571565b9150620005c78262000582565b602082019050919050565b60006020820190508181036000830152620005ed81620005ab565b9050919050565b60006200060182620004b5565b91506200060e83620004b5565b9250827fffffffffffffffffffffffffffffffffffffffffffffffffffffffffffffffff0382111562000646576200064562000332565b5b828201905092915050565b6200065c81620004b5565b82525050565b600060208201905062000679600083018462000651565b92915050565b7f4e487b7100000000000000000000000000000000000000000000000000000000600052602260045260246000fd5b60006002820490506001821680620006c757607f821691505b602082108103620006dd57620006dc6200067f565b5b50919050565b6114a280620006f36000396000f3fe608060405234801561001057600080fd5b50600436106100b45760003560e01c806370a082311161007157806370a08231146101a357806395d89b41146101d3578063a457c2d7146101f1578063a9059cbb14610221578063dd62ed3e14610251578063f7068cf014610281576100b4565b806306fdde03146100b9578063095ea7b3146100d757806318160ddd1461010757806323b872dd14610125578063313ce567146101555780633950935114610173575b600080fd5b6100c161029d565b6040516100ce9190610c8a565b60405180910390f35b6100f160048036038101906100ec9190610d45565b61032f565b6040516100fe9190610da0565b60405180910390f35b61010f610352565b60405161011c9190610dca565b60405180910390f35b61013f600480360381019061013a9190610de5565b61035c565b60405161014c9190610da0565b60405180910390f35b61015d61038b565b60405161016a9190610e54565b60405180910390f35b61018d60048036038101906101889190610d45565b610394565b60405161019a9190610da0565b60405180910390f35b6101bd60048036038101906101b89190610e6f565b6103cb565b6040516101ca9190610dca565b60405180910390f35b6101db610413565b6040516101e89190610c8a565b60405180910390f35b61020b60048036038101906102069190610d45565b6104a5565b6040516102189190610da0565b60405180910390f35b61023b60048036038101906102369190610d45565b61051c565b6040516102489190610da0565b60405180910390f35b61026b60048036038101906102669190610e9c565b61053f565b6040516102789190610dca565b60405180910390f35b61029b60048036038101906102969190610edc565b6105c6565b005b6060600380546102ac90610f72565b80601f01602080910402602001604051908101604052809291908181526020018280546102d890610f72565b80156103255780601f106102fa57610100808354040283529160200191610325565b820191906000526020600020905b81548152906001019060200180831161030857829003601f168201915b5050505050905090565b60008061033a610714565b905061034781858561071c565b600191505092915050565b6000600254905090565b600080610367610714565b90506103748582856108e5565b61037f858585610971565b60019150509392505050565b60006012905090565b60008061039f610714565b90506103c08185856103b1858961053f565b6103bb9190610fd2565b61071c565b600191505092915050565b60008060008373ffffffffffffffffffffffffffffffffffffffff1673ffffffffffffffffffffffffffffffffffffffff168152602001908152602001600020549050919050565b60606004805461042290610f72565b80601f016020809104026020016040519081016040528092919081815260200182805461044e90610f72565b801561049b5780601f106104705761010080835404028352916020019161049b565b820191906000526020600020905b81548152906001019060200180831161047e57829003601f168201915b5050505050905090565b6000806104b0610714565b905060006104be828661053f565b905083811015610503576040517f08c379a00000000000000000000000000000000000000000000000000000000081526004016104fa9061109a565b60405180910390fd5b610510828686840361071c565b60019250505092915050565b600080610527610714565b9050610534818585610971565b600191505092915050565b6000600160008473ffffffffffffffffffffffffffffffffffffffff1673ffffffffffffffffffffffffffffffffffffffff16815260200190815260200160002060008373ffffffffffffffffffffffffffffffffffffffff1673ffffffffffffffffffffffffffffffffffffffff16815260200190815260200160002054905092915050565b600760003373ffffffffffffffffffffffffffffffffffffffff1673ffffffffffffffffffffffffffffffffffffffff16815260200190815260200160002054421015610648576040517f08c379a000000000000000000000000000000000000000000000000000000000815260040161063f90611106565b60405180910390fd5b60f0426106559190610fd2565b600760003373ffffffffffffffffffffffffffffffffffffffff1673ffffffffffffffffffffffffffffffffffffffff168152602001908152602001600020819055506106a2848461051c565b508173ffffffffffffffffffffffffffffffffffffffff16631e5f7e72826040518263ffffffff1660e01b81526004016106dc9190610dca565b600060405180830381600087803b1580156106f657600080fd5b505af115801561070a573d6000803e3d6000fd5b5050505050505050565b600033905090565b600073ffffffffffffffffffffffffffffffffffffffff168373ffffffffffffffffffffffffffffffffffffffff160361078b576040517f08c379a000000000000000000000000000000000000000000000000000000000815260040161078290611198565b60405180910390fd5b600073ffffffffffffffffffffffffffffffffffffffff168273ffffffffffffffffffffffffffffffffffffffff16036107fa576040517f08c379a00000000000000000000000000000000000000000000000000000000081526004016107f19061122a565b60405180910390fd5b80600160008573ffffffffffffffffffffffffffffffffffffffff1673ffffffffffffffffffffffffffffffffffffffff16815260200190815260200160002060008473ffffffffffffffffffffffffffffffffffffffff1673ffffffffffffffffffffffffffffffffffffffff168152602001908152602001600020819055508173ffffffffffffffffffffffffffffffffffffffff168373ffffffffffffffffffffffffffffffffffffffff167f8c5be1e5ebec7d5bd14f71427d1e84f3dd0314c0f7b2291e5b200ac8c7c3b925836040516108d89190610dca565b60405180910390a3505050565b60006108f1848461053f565b90507fffffffffffffffffffffffffffffffffffffffffffffffffffffffffffffffff811461096b578181101561095d576040517f08c379a000000000000000000000000000000000000000000000000000000000815260040161095490611296565b60405180910390fd5b61096a848484840361071c565b5b50505050565b600073ffffffffffffffffffffffffffffffffffffffff168373ffffffffffffffffffffffffffffffffffffffff16036109e0576040517f08c379a00000000000000000000000000000000000000000000000000000000081526004016109d790611328565b60405180910390fd5b600073ffffffffffffffffffffffffffffffffffffffff168273ffffffffffffffffffffffffffffffffffffffff1603610a4f576040517f08c379a0000000000000000000000000000000000000000000000000000000008152600401610a46906113ba565b60405180910390fd5b610a5a838383610be7565b60008060008573ffffffffffffffffffffffffffffffffffffffff1673ffffffffffffffffffffffffffffffffffffffff16815260200190815260200160002054905081811015610ae0576040517f08c379a0000000000000000000000000000000000000000000000000000000008152600401610ad79061144c565b60405180910390fd5b8181036000808673ffffffffffffffffffffffffffffffffffffffff1673ffffffffffffffffffffffffffffffffffffffff16815260200190815260200160002081905550816000808573ffffffffffffffffffffffffffffffffffffffff1673ffffffffffffffffffffffffffffffffffffffff168152602001908152602001600020600082825401925050819055508273ffffffffffffffffffffffffffffffffffffffff168473ffffffffffffffffffffffffffffffffffffffff167fddf252ad1be2c89b69c2b068fc378daa952ba7f163c4a11628f55a4df523b3ef84604051610bce9190610dca565b60405180910390a3610be1848484610bec565b50505050565b505050565b505050565b600081519050919050565b600082825260208201905092915050565b60005b83811015610c2b578082015181840152602081019050610c10565b83811115610c3a576000848401525b50505050565b6000601f19601f8301169050919050565b6000610c5c82610bf1565b610c668185610bfc565b9350610c76818560208601610c0d565b610c7f81610c40565b840191505092915050565b60006020820190508181036000830152610ca48184610c51565b905092915050565b600080fd5b600073ffffffffffffffffffffffffffffffffffffffff82169050919050565b6000610cdc82610cb1565b9050919050565b610cec81610cd1565b8114610cf757600080fd5b50565b600081359050610d0981610ce3565b92915050565b6000819050919050565b610d2281610d0f565b8114610d2d57600080fd5b50565b600081359050610d3f81610d19565b92915050565b60008060408385031215610d5c57610d5b610cac565b5b6000610d6a85828601610cfa565b9250506020610d7b85828601610d30565b9150509250929050565b60008115159050919050565b610d9a81610d85565b82525050565b6000602082019050610db56000830184610d91565b92915050565b610dc481610d0f565b82525050565b6000602082019050610ddf6000830184610dbb565b92915050565b600080600060608486031215610dfe57610dfd610cac565b5b6000610e0c86828701610cfa565b9350506020610e1d86828701610cfa565b9250506040610e2e86828701610d30565b9150509250925092565b600060ff82169050919050565b610e4e81610e38565b82525050565b6000602082019050610e696000830184610e45565b92915050565b600060208284031215610e8557610e84610cac565b5b6000610e9384828501610cfa565b91505092915050565b60008060408385031215610eb357610eb2610cac565b5b6000610ec185828601610cfa565b9250506020610ed285828601610cfa565b9150509250929050565b60008060008060808587031215610ef657610ef5610cac565b5b6000610f0487828801610cfa565b9450506020610f1587828801610d30565b9350506040610f2687828801610cfa565b9250506060610f3787828801610d30565b91505092959194509250565b7f4e487b7100000000000000000000000000000000000000000000000000000000600052602260045260246000fd5b60006002820490506001821680610f8a57607f821691505b602082108103610f9d57610f9c610f43565b5b50919050565b7f4e487b7100000000000000000000000000000000000000000000000000000000600052601160045260246000fd5b6000610fdd82610d0f565b9150610fe883610d0f565b9250827fffffffffffffffffffffffffffffffffffffffffffffffffffffffffffffffff0382111561101d5761101c610fa3565b5b828201905092915050565b7f45524332303a2064656372656173656420616c6c6f77616e63652062656c6f7760008201527f207a65726f000000000000000000000000000000000000000000000000000000602082015250565b6000611084602583610bfc565b915061108f82611028565b604082019050919050565b600060208201905081810360008301526110b381611077565b9050919050565b7f5472616e73616374696f6e206973206c6f636b65642e00000000000000000000600082015250565b60006110f0601683610bfc565b91506110fb826110ba565b602082019050919050565b6000602082019050818103600083015261111f816110e3565b9050919050565b7f45524332303a20617070726f76652066726f6d20746865207a65726f2061646460008201527f7265737300000000000000000000000000000000000000000000000000000000602082015250565b6000611182602483610bfc565b915061118d82611126565b604082019050919050565b600060208201905081810360008301526111b181611175565b9050919050565b7f45524332303a20617070726f766520746f20746865207a65726f20616464726560008201527f7373000000000000000000000000000000000000000000000000000000000000602082015250565b6000611214602283610bfc565b915061121f826111b8565b604082019050919050565b6000602082019050818103600083015261124381611207565b9050919050565b7f45524332303a20696e73756666696369656e7420616c6c6f77616e6365000000600082015250565b6000611280601d83610bfc565b915061128b8261124a565b602082019050919050565b600060208201905081810360008301526112af81611273565b9050919050565b7f45524332303a207472616e736665722066726f6d20746865207a65726f20616460008201527f6472657373000000000000000000000000000000000000000000000000000000602082015250565b6000611312602583610bfc565b915061131d826112b6565b604082019050919050565b6000602082019050818103600083015261134181611305565b9050919050565b7f45524332303a207472616e7366657220746f20746865207a65726f206164647260008201527f6573730000000000000000000000000000000000000000000000000000000000602082015250565b60006113a4602383610bfc565b91506113af82611348565b604082019050919050565b600060208201905081810360008301526113d381611397565b9050919050565b7f45524332303a207472616e7366657220616d6f756e742065786365656473206260008201527f616c616e63650000000000000000000000000000000000000000000000000000602082015250565b6000611436602683610bfc565b9150611441826113da565b604082019050919050565b6000602082019050818103600083015261146581611429565b905091905056fea2646970667358221220f89a16e40754a01032175f1e5f049346bfd38c18c75f8a728a2a50a1ae16c81f64736f6c634300080e0033",
  "immutableReferences": {},
  "source": "// SPDX-License-Identifier:MIT\r\npragma solidity ^0.8.4;\r\n\r\nimport \"@openzeppelin/contracts/token/ERC721/ERC721.sol\";\r\nimport \"@openzeppelin/contracts/token/ERC721/extensions/ERC721Enumerable.sol\";\r\nimport \"@openzeppelin/contracts/token/ERC721/extensions/ERC721URIStorage.sol\";\r\nimport \"@openzeppelin/contracts/token/ERC721/extensions/ERC721Burnable.sol\";\r\nimport \"@openzeppelin/contracts/access/Ownable.sol\";\r\nimport \"@openzeppelin/contracts/utils/Counters.sol\";\r\n\r\nimport \"@openzeppelin/contracts/token/ERC20/utils/SafeERC20.sol\";\r\nimport \"@openzeppelin/contracts/token/ERC20/ERC20.sol\";\r\nimport \"@openzeppelin/contracts/utils/math/SafeMath.sol\";\r\nimport \"@openzeppelin/contracts/utils/Counters.sol\";\r\n\r\n\r\n\r\n\r\ninterface PlayCounter{\r\n\r\nstruct tokenInfo{\r\n        uint256 listenCount;\r\n        uint256 tokenId; \r\n        address owner;\r\n\r\n    }\r\n\r\n    function listen(uint256 _tokenId) external ;\r\n}\r\n\r\ncontract ArtGrowNFT is ERC721, ERC721Enumerable, ERC721URIStorage, ERC721Burnable, Ownable {\r\n    using Counters for Counters.Counter;\r\n\r\n    Counters.Counter private _tokenIdCounter;\r\n\r\n    // struct tokenInfo{\r\n    //     uint256 listenCount;\r\n    //     uint256 tokenId; \r\n    //     address owner;\r\n\r\n    // }\r\n    // mapping(uint256=>tokenInfo) public _tokenInfoList;\r\n    // tokenInfo[] public _tokenInfo;//  \r\n    \r\n\r\n\r\n\r\n    mapping(uint256=>PlayCounter.tokenInfo) public _tokenInfoList;\r\n    PlayCounter.tokenInfo[] public _tokenInfo;//  \r\n    \r\n\r\n\r\n    constructor() ERC721(\"ArtGrow\", \"ARG\") {}\r\n\r\n\r\n    function safeMint(address to, string memory uri) public onlyOwner {\r\n        uint256 tokenId = _tokenIdCounter.current();\r\n        _tokenIdCounter.increment();\r\n        _safeMint(to, tokenId);\r\n        _setTokenURI(tokenId, uri);\r\n\r\n        PlayCounter.tokenInfo memory newtokenInfo = PlayCounter.tokenInfo({\r\n            listenCount:0,\r\n            tokenId:tokenId,\r\n            owner:msg.sender\r\n        });\r\n     _tokenInfoList[tokenId]= newtokenInfo;   \r\n    }\r\n\r\n    // The following functions are overrides required by Solidity.\r\n\r\n    function listen(uint256 _tokenId) external{\r\n        _tokenInfoList[_tokenId].listenCount+=1;\r\n    }\r\n\r\n    function howmanyListen(uint256 _tokenId) public view returns(uint256){\r\n        return _tokenInfoList[_tokenId].listenCount;\r\n    }\r\n\r\n    function owner(uint256 _tokenId)public view returns(address)\r\n    {\r\n        return _tokenInfoList[_tokenId].owner;\r\n    }\r\n\r\n\r\n\r\n    function _beforeTokenTransfer(address from, address to, uint256 tokenId,uint256 batchSize)\r\n        internal\r\n        override(ERC721, ERC721Enumerable)\r\n    {\r\n        super._beforeTokenTransfer(from, to, tokenId,batchSize);\r\n    }\r\n\r\n    function _burn(uint256 tokenId) internal override(ERC721, ERC721URIStorage) {\r\n        super._burn(tokenId);\r\n    }\r\n\r\n    function tokenURI(uint256 tokenId)\r\n        public\r\n        view\r\n        override(ERC721, ERC721URIStorage)\r\n        returns (string memory)\r\n    {\r\n        return super.tokenURI(tokenId);\r\n    }\r\n\r\n    function supportsInterface(bytes4 interfaceId)\r\n        public\r\n        view\r\n        override(ERC721, ERC721Enumerable,ERC721URIStorage)\r\n        returns (bool)\r\n    {\r\n        return super.supportsInterface(interfaceId);\r\n    }\r\n}\r\n\r\n\r\n\r\ncontract Amaranthus is ERC20{\r\n        using Counters for Counters.Counter;\r\n\r\n    Counters.Counter private _playerCounter;\r\n\r\n   using SafeMath for uint256;\r\n   using SafeERC20 for IERC20;\r\n\r\n    uint256 private MAX_TOKEN_COUNT = 20000000000;   //   \r\n    constructor() ERC20(\"Amaranthus\", \"AAS\") {\r\n        // Mint 100 tokens to msg.sender\r\n        // Similar to how\r\n        // 1 dollar = 100 cents\r\n        // 1 token = 1 * (10 ** decimals)\r\n        _mint(msg.sender, MAX_TOKEN_COUNT * 10**uint(decimals()));\r\n    }\r\n\r\n    mapping(address => uint256) private lockedUntil;\r\n\r\n    function sendTransaction(address to, uint256 value,address _counter,uint256 _tokenId) external {\r\n        require(block.timestamp >= lockedUntil[msg.sender], \"Transaction is locked.\");\r\n\r\n        // Lock the sender's account for 4 minutes\r\n        lockedUntil[msg.sender] = block.timestamp + 240;\r\n        // Send the transaction\r\n        transfer(to,value);\r\n        PlayCounter(_counter).listen(_tokenId);  \r\n    }\r\n\r\n\r\n\r\n}",
  "sourcePath": "C:\\Users\\paete\\backNft\\client\\truffle\\contracts\\RoyalClub.sol",
  "compiler": {
    "name": "solc",
    "version": "0.8.14+commit.80d49f37.Emscripten.clang"
  },
  "schemaVersion": "3.4.13",
  "updatedAt": "2023-11-01T14:53:09.340Z",
  "devdoc": {
    "kind": "dev",
    "methods": {
      "allowance(address,address)": {
        "details": "See {IERC20-allowance}."
      },
      "approve(address,uint256)": {
        "details": "See {IERC20-approve}. NOTE: If `amount` is the maximum `uint256`, the allowance is not updated on `transferFrom`. This is semantically equivalent to an infinite approval. Requirements: - `spender` cannot be the zero address."
      },
      "balanceOf(address)": {
        "details": "See {IERC20-balanceOf}."
      },
      "decimals()": {
        "details": "Returns the number of decimals used to get its user representation. For example, if `decimals` equals `2`, a balance of `505` tokens should be displayed to a user as `5.05` (`505 / 10 ** 2`). Tokens usually opt for a value of 18, imitating the relationship between Ether and Wei. This is the default value returned by this function, unless it's overridden. NOTE: This information is only used for _display_ purposes: it in no way affects any of the arithmetic of the contract, including {IERC20-balanceOf} and {IERC20-transfer}."
      },
      "decreaseAllowance(address,uint256)": {
        "details": "Atomically decreases the allowance granted to `spender` by the caller. This is an alternative to {approve} that can be used as a mitigation for problems described in {IERC20-approve}. Emits an {Approval} event indicating the updated allowance. Requirements: - `spender` cannot be the zero address. - `spender` must have allowance for the caller of at least `subtractedValue`."
      },
      "increaseAllowance(address,uint256)": {
        "details": "Atomically increases the allowance granted to `spender` by the caller. This is an alternative to {approve} that can be used as a mitigation for problems described in {IERC20-approve}. Emits an {Approval} event indicating the updated allowance. Requirements: - `spender` cannot be the zero address."
      },
      "name()": {
        "details": "Returns the name of the token."
      },
      "symbol()": {
        "details": "Returns the symbol of the token, usually a shorter version of the name."
      },
      "totalSupply()": {
        "details": "See {IERC20-totalSupply}."
      },
      "transfer(address,uint256)": {
        "details": "See {IERC20-transfer}. Requirements: - `to` cannot be the zero address. - the caller must have a balance of at least `amount`."
      },
      "transferFrom(address,address,uint256)": {
        "details": "See {IERC20-transferFrom}. Emits an {Approval} event indicating the updated allowance. This is not required by the EIP. See the note at the beginning of {ERC20}. NOTE: Does not update the allowance if the current allowance is the maximum `uint256`. Requirements: - `from` and `to` cannot be the zero address. - `from` must have a balance of at least `amount`. - the caller must have allowance for ``from``'s tokens of at least `amount`."
      }
    },
    "version": 1
  },
  "userdoc": {
    "kind": "user",
    "methods": {},
    "version": 1
  }
}