{
	"contractName": "ArtGrowNFT",
	"abi": [
		{
			"inputs": [],
			"stateMutability": "nonpayable",
			"type": "constructor"
		},
		{
			"anonymous": false,
			"inputs": [
				{
					"indexed": true,
					"internalType": "address",
					"name": "owner",
					"type": "address"
				},
				{
					"indexed": true,
					"internalType": "address",
					"name": "approved",
					"type": "address"
				},
				{
					"indexed": true,
					"internalType": "uint256",
					"name": "tokenId",
					"type": "uint256"
				}
			],
			"name": "Approval",
			"type": "event"
		},
		{
			"anonymous": false,
			"inputs": [
				{
					"indexed": true,
					"internalType": "address",
					"name": "owner",
					"type": "address"
				},
				{
					"indexed": true,
					"internalType": "address",
					"name": "operator",
					"type": "address"
				},
				{
					"indexed": false,
					"internalType": "bool",
					"name": "approved",
					"type": "bool"
				}
			],
			"name": "ApprovalForAll",
			"type": "event"
		},
		{
			"anonymous": false,
			"inputs": [
				{
					"indexed": false,
					"internalType": "uint256",
					"name": "_fromTokenId",
					"type": "uint256"
				},
				{
					"indexed": false,
					"internalType": "uint256",
					"name": "_toTokenId",
					"type": "uint256"
				}
			],
			"name": "BatchMetadataUpdate",
			"type": "event"
		},
		{
			"anonymous": false,
			"inputs": [
				{
					"indexed": false,
					"internalType": "uint256",
					"name": "_tokenId",
					"type": "uint256"
				}
			],
			"name": "MetadataUpdate",
			"type": "event"
		},
		{
			"anonymous": false,
			"inputs": [
				{
					"indexed": true,
					"internalType": "address",
					"name": "previousOwner",
					"type": "address"
				},
				{
					"indexed": true,
					"internalType": "address",
					"name": "newOwner",
					"type": "address"
				}
			],
			"name": "OwnershipTransferred",
			"type": "event"
		},
		{
			"anonymous": false,
			"inputs": [
				{
					"indexed": true,
					"internalType": "address",
					"name": "from",
					"type": "address"
				},
				{
					"indexed": true,
					"internalType": "address",
					"name": "to",
					"type": "address"
				},
				{
					"indexed": true,
					"internalType": "uint256",
					"name": "tokenId",
					"type": "uint256"
				}
			],
			"name": "Transfer",
			"type": "event"
		},
		{
			"inputs": [
				{
					"internalType": "uint256",
					"name": "",
					"type": "uint256"
				}
			],
			"name": "_tokenInfo",
			"outputs": [
				{
					"internalType": "uint256",
					"name": "listenCount",
					"type": "uint256"
				},
				{
					"internalType": "uint256",
					"name": "tokenId",
					"type": "uint256"
				},
				{
					"internalType": "address",
					"name": "owner",
					"type": "address"
				}
			],
			"stateMutability": "view",
			"type": "function"
		},
		{
			"inputs": [
				{
					"internalType": "uint256",
					"name": "",
					"type": "uint256"
				}
			],
			"name": "_tokenInfoList",
			"outputs": [
				{
					"internalType": "uint256",
					"name": "listenCount",
					"type": "uint256"
				},
				{
					"internalType": "uint256",
					"name": "tokenId",
					"type": "uint256"
				},
				{
					"internalType": "address",
					"name": "owner",
					"type": "address"
				}
			],
			"stateMutability": "view",
			"type": "function"
		},
		{
			"inputs": [
				{
					"internalType": "address",
					"name": "to",
					"type": "address"
				},
				{
					"internalType": "uint256",
					"name": "tokenId",
					"type": "uint256"
				}
			],
			"name": "approve",
			"outputs": [],
			"stateMutability": "nonpayable",
			"type": "function"
		},
		{
			"inputs": [
				{
					"internalType": "address",
					"name": "owner",
					"type": "address"
				}
			],
			"name": "balanceOf",
			"outputs": [
				{
					"internalType": "uint256",
					"name": "",
					"type": "uint256"
				}
			],
			"stateMutability": "view",
			"type": "function"
		},
		{
			"inputs": [
				{
					"internalType": "uint256",
					"name": "tokenId",
					"type": "uint256"
				}
			],
			"name": "burn",
			"outputs": [],
			"stateMutability": "nonpayable",
			"type": "function"
		},
		{
			"inputs": [
				{
					"internalType": "uint256",
					"name": "tokenId",
					"type": "uint256"
				}
			],
			"name": "getApproved",
			"outputs": [
				{
					"internalType": "address",
					"name": "",
					"type": "address"
				}
			],
			"stateMutability": "view",
			"type": "function"
		},
		{
			"inputs": [
				{
					"internalType": "address",
					"name": "owner",
					"type": "address"
				},
				{
					"internalType": "address",
					"name": "operator",
					"type": "address"
				}
			],
			"name": "isApprovedForAll",
			"outputs": [
				{
					"internalType": "bool",
					"name": "",
					"type": "bool"
				}
			],
			"stateMutability": "view",
			"type": "function"
		},
		{
			"inputs": [],
			"name": "name",
			"outputs": [
				{
					"internalType": "string",
					"name": "",
					"type": "string"
				}
			],
			"stateMutability": "view",
			"type": "function"
		},
		{
			"inputs": [
				{
					"internalType": "uint256",
					"name": "tokenId",
					"type": "uint256"
				}
			],
			"name": "ownerOf",
			"outputs": [
				{
					"internalType": "address",
					"name": "",
					"type": "address"
				}
			],
			"stateMutability": "view",
			"type": "function"
		},
		{
			"inputs": [],
			"name": "renounceOwnership",
			"outputs": [],
			"stateMutability": "nonpayable",
			"type": "function"
		},
		{
			"inputs": [
				{
					"internalType": "address",
					"name": "from",
					"type": "address"
				},
				{
					"internalType": "address",
					"name": "to",
					"type": "address"
				},
				{
					"internalType": "uint256",
					"name": "tokenId",
					"type": "uint256"
				}
			],
			"name": "safeTransferFrom",
			"outputs": [],
			"stateMutability": "nonpayable",
			"type": "function"
		},
		{
			"inputs": [
				{
					"internalType": "address",
					"name": "from",
					"type": "address"
				},
				{
					"internalType": "address",
					"name": "to",
					"type": "address"
				},
				{
					"internalType": "uint256",
					"name": "tokenId",
					"type": "uint256"
				},
				{
					"internalType": "bytes",
					"name": "data",
					"type": "bytes"
				}
			],
			"name": "safeTransferFrom",
			"outputs": [],
			"stateMutability": "nonpayable",
			"type": "function"
		},
		{
			"inputs": [
				{
					"internalType": "address",
					"name": "operator",
					"type": "address"
				},
				{
					"internalType": "bool",
					"name": "approved",
					"type": "bool"
				}
			],
			"name": "setApprovalForAll",
			"outputs": [],
			"stateMutability": "nonpayable",
			"type": "function"
		},
		{
			"inputs": [],
			"name": "symbol",
			"outputs": [
				{
					"internalType": "string",
					"name": "",
					"type": "string"
				}
			],
			"stateMutability": "view",
			"type": "function"
		},
		{
			"inputs": [
				{
					"internalType": "uint256",
					"name": "index",
					"type": "uint256"
				}
			],
			"name": "tokenByIndex",
			"outputs": [
				{
					"internalType": "uint256",
					"name": "",
					"type": "uint256"
				}
			],
			"stateMutability": "view",
			"type": "function"
		},
		{
			"inputs": [
				{
					"internalType": "address",
					"name": "owner",
					"type": "address"
				},
				{
					"internalType": "uint256",
					"name": "index",
					"type": "uint256"
				}
			],
			"name": "tokenOfOwnerByIndex",
			"outputs": [
				{
					"internalType": "uint256",
					"name": "",
					"type": "uint256"
				}
			],
			"stateMutability": "view",
			"type": "function"
		},
		{
			"inputs": [],
			"name": "totalSupply",
			"outputs": [
				{
					"internalType": "uint256",
					"name": "",
					"type": "uint256"
				}
			],
			"stateMutability": "view",
			"type": "function"
		},
		{
			"inputs": [
				{
					"internalType": "address",
					"name": "from",
					"type": "address"
				},
				{
					"internalType": "address",
					"name": "to",
					"type": "address"
				},
				{
					"internalType": "uint256",
					"name": "tokenId",
					"type": "uint256"
				}
			],
			"name": "transferFrom",
			"outputs": [],
			"stateMutability": "nonpayable",
			"type": "function"
		},
		{
			"inputs": [
				{
					"internalType": "address",
					"name": "newOwner",
					"type": "address"
				}
			],
			"name": "transferOwnership",
			"outputs": [],
			"stateMutability": "nonpayable",
			"type": "function"
		},
		{
			"inputs": [
				{
					"internalType": "address",
					"name": "to",
					"type": "address"
				},
				{
					"internalType": "string",
					"name": "uri",
					"type": "string"
				}
			],
			"name": "safeMint",
			"outputs": [],
			"stateMutability": "nonpayable",
			"type": "function"
		},
		{
			"inputs": [
				{
					"internalType": "uint256",
					"name": "_tokenId",
					"type": "uint256"
				}
			],
			"name": "listen",
			"outputs": [],
			"stateMutability": "nonpayable",
			"type": "function"
		},
		{
			"inputs": [
				{
					"internalType": "uint256",
					"name": "_tokenId",
					"type": "uint256"
				}
			],
			"name": "howmanyListen",
			"outputs": [
				{
					"internalType": "uint256",
					"name": "",
					"type": "uint256"
				}
			],
			"stateMutability": "view",
			"type": "function"
		},
		{
			"inputs": [],
			"name": "owner",
			"outputs": [
				{
					"internalType": "address",
					"name": "",
					"type": "address"
				}
			],
			"stateMutability": "view",
			"type": "function"
		},
		{
			"inputs": [
				{
					"internalType": "uint256",
					"name": "_tokenId",
					"type": "uint256"
				}
			],
			"name": "owner",
			"outputs": [
				{
					"internalType": "address",
					"name": "",
					"type": "address"
				}
			],
			"stateMutability": "view",
			"type": "function"
		},
		{
			"inputs": [
				{
					"internalType": "uint256",
					"name": "tokenId",
					"type": "uint256"
				}
			],
			"name": "tokenURI",
			"outputs": [
				{
					"internalType": "string",
					"name": "",
					"type": "string"
				}
			],
			"stateMutability": "view",
			"type": "function"
		},
		{
			"inputs": [
				{
					"internalType": "bytes4",
					"name": "interfaceId",
					"type": "bytes4"
				}
			],
			"name": "supportsInterface",
			"outputs": [
				{
					"internalType": "bool",
					"name": "",
					"type": "bool"
				}
			],
			"stateMutability": "view",
			"type": "function"
		}
	],
	"bytecode": "0x60806040523480156200001157600080fd5b506040518060400160405280600781526020017f41727447726f77000000000000000000000000000000000000000000000000008152506040518060400160405280600381526020017f4152470000000000000000000000000000000000000000000000000000000000815250816000908051906020019062000096929190620001a6565b508060019080519060200190620000af929190620001a6565b505050620000d2620000c6620000d860201b60201c565b620000e060201b60201c565b620002ba565b600033905090565b6000600b60009054906101000a900473ffffffffffffffffffffffffffffffffffffffff16905081600b60006101000a81548173ffffffffffffffffffffffffffffffffffffffff021916908373ffffffffffffffffffffffffffffffffffffffff1602179055508173ffffffffffffffffffffffffffffffffffffffff168173ffffffffffffffffffffffffffffffffffffffff167f8be0079c531659141344cd1fd0a4f28419497f9722a3daafe3b4186f6b6457e060405160405180910390a35050565b828054620001b49062000285565b90600052602060002090601f016020900481019282620001d8576000855562000224565b82601f10620001f357805160ff191683800117855562000224565b8280016001018555821562000224579182015b828111156200022357825182559160200191906001019062000206565b5b50905062000233919062000237565b5090565b5b808211156200025257600081600090555060010162000238565b5090565b7f4e487b7100000000000000000000000000000000000000000000000000000000600052602260045260246000fd5b600060028204905060018216806200029e57607f821691505b602082108103620002b457620002b362000256565b5b50919050565b613c4280620002ca6000396000f3fe608060405234801561001057600080fd5b506004361061018e5760003560e01c806370a08231116100de578063a22cb46511610097578063d204c45e11610071578063d204c45e146104bd578063df738ee2146104d9578063e985e9c514610509578063f2fde38b146105395761018e565b8063a22cb46514610455578063b88d4fde14610471578063c87b56dd1461048d5761018e565b806370a082311461037d578063715018a6146103ad5780638da5cb5b146103b75780638e29c1a7146103d557806395d89b4114610407578063a123c33e146104255761018e565b806323b872dd1161014b57806342966c681161012557806342966c68146102cf5780634bb8456c146102eb5780634f6ccce71461031d5780636352211e1461034d5761018e565b806323b872dd146102675780632f745c591461028357806342842e0e146102b35761018e565b806301ffc9a71461019357806306fdde03146101c3578063081812fc146101e1578063095ea7b31461021157806318160ddd1461022d5780631e5f7e721461024b575b600080fd5b6101ad60048036038101906101a891906129a4565b610555565b6040516101ba91906129ec565b60405180910390f35b6101cb610567565b6040516101d89190612aa0565b60405180910390f35b6101fb60048036038101906101f69190612af8565b6105f9565b6040516102089190612b66565b60405180910390f35b61022b60048036038101906102269190612bad565b61063f565b005b610235610756565b6040516102429190612bfc565b60405180910390f35b61026560048036038101906102609190612af8565b610763565b005b610281600480360381019061027c9190612c17565b610794565b005b61029d60048036038101906102989190612bad565b6107f4565b6040516102aa9190612bfc565b60405180910390f35b6102cd60048036038101906102c89190612c17565b610899565b005b6102e960048036038101906102e49190612af8565b6108b9565b005b61030560048036038101906103009190612af8565b610915565b60405161031493929190612c6a565b60405180910390f35b61033760048036038101906103329190612af8565b61096f565b6040516103449190612bfc565b60405180910390f35b61036760048036038101906103629190612af8565b6109e0565b6040516103749190612b66565b60405180910390f35b61039760048036038101906103929190612ca1565b610a66565b6040516103a49190612bfc565b60405180910390f35b6103b5610b1d565b005b6103bf610b31565b6040516103cc9190612b66565b60405180910390f35b6103ef60048036038101906103ea9190612af8565b610b5b565b6040516103fe93929190612c6a565b60405180910390f35b61040f610ba5565b60405161041c9190612aa0565b60405180910390f35b61043f600480360381019061043a9190612af8565b610c37565b60405161044c9190612b66565b60405180910390f35b61046f600480360381019061046a9190612cfa565b610c77565b005b61048b60048036038101906104869190612e6f565b610c8d565b005b6104a760048036038101906104a29190612af8565b610cef565b6040516104b49190612aa0565b60405180910390f35b6104d760048036038101906104d29190612f93565b610d01565b005b6104f360048036038101906104ee9190612af8565b610de3565b6040516105009190612bfc565b60405180910390f35b610523600480360381019061051e9190612fef565b610e03565b60405161053091906129ec565b60405180910390f35b610553600480360381019061054e9190612ca1565b610e97565b005b600061056082610f1a565b9050919050565b6060600080546105769061305e565b80601f01602080910402602001604051908101604052809291908181526020018280546105a29061305e565b80156105ef5780601f106105c4576101008083540402835291602001916105ef565b820191906000526020600020905b8154815290600101906020018083116105d257829003601f168201915b5050505050905090565b600061060482610f7b565b6004600083815260200190815260200160002060009054906101000a900473ffffffffffffffffffffffffffffffffffffffff169050919050565b600061064a826109e0565b90508073ffffffffffffffffffffffffffffffffffffffff168373ffffffffffffffffffffffffffffffffffffffff16036106ba576040517f08c379a00000000000000000000000000000000000000000000000000000000081526004016106b190613101565b60405180910390fd5b8073ffffffffffffffffffffffffffffffffffffffff166106d9610fc6565b73ffffffffffffffffffffffffffffffffffffffff161480610708575061070781610702610fc6565b610e03565b5b610747576040517f08c379a000000000000000000000000000000000000000000000000000000000815260040161073e90613193565b60405180910390fd5b6107518383610fce565b505050565b6000600880549050905090565b6001600d6000838152602001908152602001600020600001600082825461078a91906131e2565b9250508190555050565b6107a561079f610fc6565b82611087565b6107e4576040517f08c379a00000000000000000000000000000000000000000000000000000000081526004016107db906132aa565b60405180910390fd5b6107ef83838361111c565b505050565b60006107ff83610a66565b8210610840576040517f08c379a00000000000000000000000000000000000000000000000000000000081526004016108379061333c565b60405180910390fd5b600660008473ffffffffffffffffffffffffffffffffffffffff1673ffffffffffffffffffffffffffffffffffffffff168152602001908152602001600020600083815260200190815260200160002054905092915050565b6108b483838360405180602001604052806000815250610c8d565b505050565b6108ca6108c4610fc6565b82611087565b610909576040517f08c379a0000000000000000000000000000000000000000000000000000000008152600401610900906132aa565b60405180910390fd5b61091281611415565b50565b600e818154811061092557600080fd5b90600052602060002090600302016000915090508060000154908060010154908060020160009054906101000a900473ffffffffffffffffffffffffffffffffffffffff16905083565b6000610979610756565b82106109ba576040517f08c379a00000000000000000000000000000000000000000000000000000000081526004016109b1906133ce565b60405180910390fd5b600882815481106109ce576109cd6133ee565b5b90600052602060002001549050919050565b6000806109ec83611421565b9050600073ffffffffffffffffffffffffffffffffffffffff168173ffffffffffffffffffffffffffffffffffffffff1603610a5d576040517f08c379a0000000000000000000000000000000000000000000000000000000008152600401610a5490613469565b60405180910390fd5b80915050919050565b60008073ffffffffffffffffffffffffffffffffffffffff168273ffffffffffffffffffffffffffffffffffffffff1603610ad6576040517f08c379a0000000000000000000000000000000000000000000000000000000008152600401610acd906134fb565b60405180910390fd5b600360008373ffffffffffffffffffffffffffffffffffffffff1673ffffffffffffffffffffffffffffffffffffffff168152602001908152602001600020549050919050565b610b2561145e565b610b2f60006114dc565b565b6000600b60009054906101000a900473ffffffffffffffffffffffffffffffffffffffff16905090565b600d6020528060005260406000206000915090508060000154908060010154908060020160009054906101000a900473ffffffffffffffffffffffffffffffffffffffff16905083565b606060018054610bb49061305e565b80601f0160208091040260200160405190810160405280929190818152602001828054610be09061305e565b8015610c2d5780601f10610c0257610100808354040283529160200191610c2d565b820191906000526020600020905b815481529060010190602001808311610c1057829003601f168201915b5050505050905090565b6000600d600083815260200190815260200160002060020160009054906101000a900473ffffffffffffffffffffffffffffffffffffffff169050919050565b610c89610c82610fc6565b83836115a2565b5050565b610c9e610c98610fc6565b83611087565b610cdd576040517f08c379a0000000000000000000000000000000000000000000000000000000008152600401610cd4906132aa565b60405180910390fd5b610ce98484848461170e565b50505050565b6060610cfa8261176a565b9050919050565b610d0961145e565b6000610d15600c61187c565b9050610d21600c61188a565b610d2b83826118a0565b610d3581836118be565b60006040518060600160405280600081526020018381526020013373ffffffffffffffffffffffffffffffffffffffff16815250905080600d6000848152602001908152602001600020600082015181600001556020820151816001015560408201518160020160006101000a81548173ffffffffffffffffffffffffffffffffffffffff021916908373ffffffffffffffffffffffffffffffffffffffff16021790555090505050505050565b6000600d6000838152602001908152602001600020600001549050919050565b6000600560008473ffffffffffffffffffffffffffffffffffffffff1673ffffffffffffffffffffffffffffffffffffffff16815260200190815260200160002060008373ffffffffffffffffffffffffffffffffffffffff1673ffffffffffffffffffffffffffffffffffffffff16815260200190815260200160002060009054906101000a900460ff16905092915050565b610e9f61145e565b600073ffffffffffffffffffffffffffffffffffffffff168173ffffffffffffffffffffffffffffffffffffffff1603610f0e576040517f08c379a0000000000000000000000000000000000000000000000000000000008152600401610f059061358d565b60405180910390fd5b610f17816114dc565b50565b6000634906490660e01b7bffffffffffffffffffffffffffffffffffffffffffffffffffffffff1916827bffffffffffffffffffffffffffffffffffffffffffffffffffffffff19161480610f745750610f7382611969565b5b9050919050565b610f84816119e3565b610fc3576040517f08c379a0000000000000000000000000000000000000000000000000000000008152600401610fba90613469565b60405180910390fd5b50565b600033905090565b816004600083815260200190815260200160002060006101000a81548173ffffffffffffffffffffffffffffffffffffffff021916908373ffffffffffffffffffffffffffffffffffffffff160217905550808273ffffffffffffffffffffffffffffffffffffffff16611041836109e0565b73ffffffffffffffffffffffffffffffffffffffff167f8c5be1e5ebec7d5bd14f71427d1e84f3dd0314c0f7b2291e5b200ac8c7c3b92560405160405180910390a45050565b600080611093836109e0565b90508073ffffffffffffffffffffffffffffffffffffffff168473ffffffffffffffffffffffffffffffffffffffff1614806110d557506110d48185610e03565b5b8061111357508373ffffffffffffffffffffffffffffffffffffffff166110fb846105f9565b73ffffffffffffffffffffffffffffffffffffffff16145b91505092915050565b8273ffffffffffffffffffffffffffffffffffffffff1661113c826109e0565b73ffffffffffffffffffffffffffffffffffffffff1614611192576040517f08c379a00000000000000000000000000000000000000000000000000000000081526004016111899061361f565b60405180910390fd5b600073ffffffffffffffffffffffffffffffffffffffff168273ffffffffffffffffffffffffffffffffffffffff1603611201576040517f08c379a00000000000000000000000000000000000000000000000000000000081526004016111f8906136b1565b60405180910390fd5b61120e8383836001611a24565b8273ffffffffffffffffffffffffffffffffffffffff1661122e826109e0565b73ffffffffffffffffffffffffffffffffffffffff1614611284576040517f08c379a000000000000000000000000000000000000000000000000000000000815260040161127b9061361f565b60405180910390fd5b6004600082815260200190815260200160002060006101000a81549073ffffffffffffffffffffffffffffffffffffffff02191690556001600360008573ffffffffffffffffffffffffffffffffffffffff1673ffffffffffffffffffffffffffffffffffffffff168152602001908152602001600020600082825403925050819055506001600360008473ffffffffffffffffffffffffffffffffffffffff1673ffffffffffffffffffffffffffffffffffffffff16815260200190815260200160002060008282540192505081905550816002600083815260200190815260200160002060006101000a81548173ffffffffffffffffffffffffffffffffffffffff021916908373ffffffffffffffffffffffffffffffffffffffff160217905550808273ffffffffffffffffffffffffffffffffffffffff168473ffffffffffffffffffffffffffffffffffffffff167fddf252ad1be2c89b69c2b068fc378daa952ba7f163c4a11628f55a4df523b3ef60405160405180910390a46114108383836001611a36565b505050565b61141e81611a3c565b50565b60006002600083815260200190815260200160002060009054906101000a900473ffffffffffffffffffffffffffffffffffffffff169050919050565b611466610fc6565b73ffffffffffffffffffffffffffffffffffffffff16611484610b31565b73ffffffffffffffffffffffffffffffffffffffff16146114da576040517f08c379a00000000000000000000000000000000000000000000000000000000081526004016114d19061371d565b60405180910390fd5b565b6000600b60009054906101000a900473ffffffffffffffffffffffffffffffffffffffff16905081600b60006101000a81548173ffffffffffffffffffffffffffffffffffffffff021916908373ffffffffffffffffffffffffffffffffffffffff1602179055508173ffffffffffffffffffffffffffffffffffffffff168173ffffffffffffffffffffffffffffffffffffffff167f8be0079c531659141344cd1fd0a4f28419497f9722a3daafe3b4186f6b6457e060405160405180910390a35050565b8173ffffffffffffffffffffffffffffffffffffffff168373ffffffffffffffffffffffffffffffffffffffff1603611610576040517f08c379a000000000000000000000000000000000000000000000000000000000815260040161160790613789565b60405180910390fd5b80600560008573ffffffffffffffffffffffffffffffffffffffff1673ffffffffffffffffffffffffffffffffffffffff16815260200190815260200160002060008473ffffffffffffffffffffffffffffffffffffffff1673ffffffffffffffffffffffffffffffffffffffff16815260200190815260200160002060006101000a81548160ff0219169083151502179055508173ffffffffffffffffffffffffffffffffffffffff168373ffffffffffffffffffffffffffffffffffffffff167f17307eab39ab6107e8899845ad3d59bd9653f200f220920489ca2b5937696c318360405161170191906129ec565b60405180910390a3505050565b61171984848461111c565b61172584848484611a8f565b611764576040517f08c379a000000000000000000000000000000000000000000000000000000000815260040161175b9061381b565b60405180910390fd5b50505050565b606061177582610f7b565b6000600a600084815260200190815260200160002080546117959061305e565b80601f01602080910402602001604051908101604052809291908181526020018280546117c19061305e565b801561180e5780601f106117e35761010080835404028352916020019161180e565b820191906000526020600020905b8154815290600101906020018083116117f157829003601f168201915b50505050509050600061181f611c16565b90506000815103611834578192505050611877565b600082511115611869578082604051602001611851929190613877565b60405160208183030381529060405292505050611877565b61187284611c2d565b925050505b919050565b600081600001549050919050565b6001816000016000828254019250508190555050565b6118ba828260405180602001604052806000815250611c95565b5050565b6118c7826119e3565b611906576040517f08c379a00000000000000000000000000000000000000000000000000000000081526004016118fd9061390d565b60405180910390fd5b80600a6000848152602001908152602001600020908051906020019061192d929190612855565b507ff8e1a15aba9398e019f0b49df1a4fde98ee17ae345cb5f6b5e2c27f5033e8ce78260405161195d9190612bfc565b60405180910390a15050565b60007f780e9d63000000000000000000000000000000000000000000000000000000007bffffffffffffffffffffffffffffffffffffffffffffffffffffffff1916827bffffffffffffffffffffffffffffffffffffffffffffffffffffffff191614806119dc57506119db82611cf0565b5b9050919050565b60008073ffffffffffffffffffffffffffffffffffffffff16611a0583611421565b73ffffffffffffffffffffffffffffffffffffffff1614159050919050565b611a3084848484611dd2565b50505050565b50505050565b611a4581611f30565b6000600a60008381526020019081526020016000208054611a659061305e565b905014611a8c57600a60008281526020019081526020016000206000611a8b91906128db565b5b50565b6000611ab08473ffffffffffffffffffffffffffffffffffffffff1661207e565b15611c09578373ffffffffffffffffffffffffffffffffffffffff1663150b7a02611ad9610fc6565b8786866040518563ffffffff1660e01b8152600401611afb9493929190613982565b6020604051808303816000875af1925050508015611b3757506040513d601f19601f82011682018060405250810190611b3491906139e3565b60015b611bb9573d8060008114611b67576040519150601f19603f3d011682016040523d82523d6000602084013e611b6c565b606091505b506000815103611bb1576040517f08c379a0000000000000000000000000000000000000000000000000000000008152600401611ba89061381b565b60405180910390fd5b805181602001fd5b63150b7a0260e01b7bffffffffffffffffffffffffffffffffffffffffffffffffffffffff1916817bffffffffffffffffffffffffffffffffffffffffffffffffffffffff191614915050611c0e565b600190505b949350505050565b606060405180602001604052806000815250905090565b6060611c3882610f7b565b6000611c42611c16565b90506000815111611c625760405180602001604052806000815250611c8d565b80611c6c846120a1565b604051602001611c7d929190613877565b6040516020818303038152906040525b915050919050565b611c9f838361216f565b611cac6000848484611a8f565b611ceb576040517f08c379a0000000000000000000000000000000000000000000000000000000008152600401611ce29061381b565b60405180910390fd5b505050565b60007f80ac58cd000000000000000000000000000000000000000000000000000000007bffffffffffffffffffffffffffffffffffffffffffffffffffffffff1916827bffffffffffffffffffffffffffffffffffffffffffffffffffffffff19161480611dbb57507f5b5e139f000000000000000000000000000000000000000000000000000000007bffffffffffffffffffffffffffffffffffffffffffffffffffffffff1916827bffffffffffffffffffffffffffffffffffffffffffffffffffffffff1916145b80611dcb5750611dca8261238c565b5b9050919050565b611dde848484846123f6565b6001811115611e22576040517f08c379a0000000000000000000000000000000000000000000000000000000008152600401611e1990613a82565b60405180910390fd5b6000829050600073ffffffffffffffffffffffffffffffffffffffff168573ffffffffffffffffffffffffffffffffffffffff1603611e6957611e64816123fc565b611ea8565b8373ffffffffffffffffffffffffffffffffffffffff168573ffffffffffffffffffffffffffffffffffffffff1614611ea757611ea68582612445565b5b5b600073ffffffffffffffffffffffffffffffffffffffff168473ffffffffffffffffffffffffffffffffffffffff1603611eea57611ee5816125b2565b611f29565b8473ffffffffffffffffffffffffffffffffffffffff168473ffffffffffffffffffffffffffffffffffffffff1614611f2857611f278482612683565b5b5b5050505050565b6000611f3b826109e0565b9050611f4b816000846001611a24565b611f54826109e0565b90506004600083815260200190815260200160002060006101000a81549073ffffffffffffffffffffffffffffffffffffffff02191690556001600360008373ffffffffffffffffffffffffffffffffffffffff1673ffffffffffffffffffffffffffffffffffffffff168152602001908152602001600020600082825403925050819055506002600083815260200190815260200160002060006101000a81549073ffffffffffffffffffffffffffffffffffffffff021916905581600073ffffffffffffffffffffffffffffffffffffffff168273ffffffffffffffffffffffffffffffffffffffff167fddf252ad1be2c89b69c2b068fc378daa952ba7f163c4a11628f55a4df523b3ef60405160405180910390a461207a816000846001611a36565b5050565b6000808273ffffffffffffffffffffffffffffffffffffffff163b119050919050565b6060600060016120b084612702565b01905060008167ffffffffffffffff8111156120cf576120ce612d44565b5b6040519080825280601f01601f1916602001820160405280156121015781602001600182028036833780820191505090505b509050600082602001820190505b600115612164578080600190039150507f3031323334353637383961626364656600000000000000000000000000000000600a86061a8153600a858161215857612157613aa2565b5b0494506000850361210f575b819350505050919050565b600073ffffffffffffffffffffffffffffffffffffffff168273ffffffffffffffffffffffffffffffffffffffff16036121de576040517f08c379a00000000000000000000000000000000000000000000000000000000081526004016121d590613b1d565b60405180910390fd5b6121e7816119e3565b15612227576040517f08c379a000000000000000000000000000000000000000000000000000000000815260040161221e90613b89565b60405180910390fd5b612235600083836001611a24565b61223e816119e3565b1561227e576040517f08c379a000000000000000000000000000000000000000000000000000000000815260040161227590613b89565b60405180910390fd5b6001600360008473ffffffffffffffffffffffffffffffffffffffff1673ffffffffffffffffffffffffffffffffffffffff16815260200190815260200160002060008282540192505081905550816002600083815260200190815260200160002060006101000a81548173ffffffffffffffffffffffffffffffffffffffff021916908373ffffffffffffffffffffffffffffffffffffffff160217905550808273ffffffffffffffffffffffffffffffffffffffff16600073ffffffffffffffffffffffffffffffffffffffff167fddf252ad1be2c89b69c2b068fc378daa952ba7f163c4a11628f55a4df523b3ef60405160405180910390a4612388600083836001611a36565b5050565b60007f01ffc9a7000000000000000000000000000000000000000000000000000000007bffffffffffffffffffffffffffffffffffffffffffffffffffffffff1916827bffffffffffffffffffffffffffffffffffffffffffffffffffffffff1916149050919050565b50505050565b6008805490506009600083815260200190815260200160002081905550600881908060018154018082558091505060019003906000526020600020016000909190919091505550565b6000600161245284610a66565b61245c9190613ba9565b9050600060076000848152602001908152602001600020549050818114612541576000600660008673ffffffffffffffffffffffffffffffffffffffff1673ffffffffffffffffffffffffffffffffffffffff168152602001908152602001600020600084815260200190815260200160002054905080600660008773ffffffffffffffffffffffffffffffffffffffff1673ffffffffffffffffffffffffffffffffffffffff168152602001908152602001600020600084815260200190815260200160002081905550816007600083815260200190815260200160002081905550505b6007600084815260200190815260200160002060009055600660008573ffffffffffffffffffffffffffffffffffffffff1673ffffffffffffffffffffffffffffffffffffffff16815260200190815260200160002060008381526020019081526020016000206000905550505050565b600060016008805490506125c69190613ba9565b90506000600960008481526020019081526020016000205490506000600883815481106125f6576125f56133ee565b5b906000526020600020015490508060088381548110612618576126176133ee565b5b90600052602060002001819055508160096000838152602001908152602001600020819055506009600085815260200190815260200160002060009055600880548061266757612666613bdd565b5b6001900381819060005260206000200160009055905550505050565b600061268e83610a66565b905081600660008573ffffffffffffffffffffffffffffffffffffffff1673ffffffffffffffffffffffffffffffffffffffff168152602001908152602001600020600083815260200190815260200160002081905550806007600084815260200190815260200160002081905550505050565b600080600090507a184f03e93ff9f4daa797ed6e38ed64bf6a1f0100000000000000008310612760577a184f03e93ff9f4daa797ed6e38ed64bf6a1f010000000000000000838161275657612755613aa2565b5b0492506040810190505b6d04ee2d6d415b85acef8100000000831061279d576d04ee2d6d415b85acef8100000000838161279357612792613aa2565b5b0492506020810190505b662386f26fc1000083106127cc57662386f26fc1000083816127c2576127c1613aa2565b5b0492506010810190505b6305f5e10083106127f5576305f5e10083816127eb576127ea613aa2565b5b0492506008810190505b612710831061281a5761271083816128105761280f613aa2565b5b0492506004810190505b6064831061283d576064838161283357612832613aa2565b5b0492506002810190505b600a831061284c576001810190505b80915050919050565b8280546128619061305e565b90600052602060002090601f01602090048101928261288357600085556128ca565b82601f1061289c57805160ff19168380011785556128ca565b828001600101855582156128ca579182015b828111156128c95782518255916020019190600101906128ae565b5b5090506128d7919061291b565b5090565b5080546128e79061305e565b6000825580601f106128f95750612918565b601f016020900490600052602060002090810190612917919061291b565b5b50565b5b8082111561293457600081600090555060010161291c565b5090565b6000604051905090565b600080fd5b600080fd5b60007fffffffff0000000000000000000000000000000000000000000000000000000082169050919050565b6129818161294c565b811461298c57600080fd5b50565b60008135905061299e81612978565b92915050565b6000602082840312156129ba576129b9612942565b5b60006129c88482850161298f565b91505092915050565b60008115159050919050565b6129e6816129d1565b82525050565b6000602082019050612a0160008301846129dd565b92915050565b600081519050919050565b600082825260208201905092915050565b60005b83811015612a41578082015181840152602081019050612a26565b83811115612a50576000848401525b50505050565b6000601f19601f8301169050919050565b6000612a7282612a07565b612a7c8185612a12565b9350612a8c818560208601612a23565b612a9581612a56565b840191505092915050565b60006020820190508181036000830152612aba8184612a67565b905092915050565b6000819050919050565b612ad581612ac2565b8114612ae057600080fd5b50565b600081359050612af281612acc565b92915050565b600060208284031215612b0e57612b0d612942565b5b6000612b1c84828501612ae3565b91505092915050565b600073ffffffffffffffffffffffffffffffffffffffff82169050919050565b6000612b5082612b25565b9050919050565b612b6081612b45565b82525050565b6000602082019050612b7b6000830184612b57565b92915050565b612b8a81612b45565b8114612b9557600080fd5b50565b600081359050612ba781612b81565b92915050565b60008060408385031215612bc457612bc3612942565b5b6000612bd285828601612b98565b9250506020612be385828601612ae3565b9150509250929050565b612bf681612ac2565b82525050565b6000602082019050612c116000830184612bed565b92915050565b600080600060608486031215612c3057612c2f612942565b5b6000612c3e86828701612b98565b9350506020612c4f86828701612b98565b9250506040612c6086828701612ae3565b9150509250925092565b6000606082019050612c7f6000830186612bed565b612c8c6020830185612bed565b612c996040830184612b57565b949350505050565b600060208284031215612cb757612cb6612942565b5b6000612cc584828501612b98565b91505092915050565b612cd7816129d1565b8114612ce257600080fd5b50565b600081359050612cf481612cce565b92915050565b60008060408385031215612d1157612d10612942565b5b6000612d1f85828601612b98565b9250506020612d3085828601612ce5565b9150509250929050565b600080fd5b600080fd5b7f4e487b7100000000000000000000000000000000000000000000000000000000600052604160045260246000fd5b612d7c82612a56565b810181811067ffffffffffffffff82111715612d9b57612d9a612d44565b5b80604052505050565b6000612dae612938565b9050612dba8282612d73565b919050565b600067ffffffffffffffff821115612dda57612dd9612d44565b5b612de382612a56565b9050602081019050919050565b82818337600083830152505050565b6000612e12612e0d84612dbf565b612da4565b905082815260208101848484011115612e2e57612e2d612d3f565b5b612e39848285612df0565b509392505050565b600082601f830112612e5657612e55612d3a565b5b8135612e66848260208601612dff565b91505092915050565b60008060008060808587031215612e8957612e88612942565b5b6000612e9787828801612b98565b9450506020612ea887828801612b98565b9350506040612eb987828801612ae3565b925050606085013567ffffffffffffffff811115612eda57612ed9612947565b5b612ee687828801612e41565b91505092959194509250565b600067ffffffffffffffff821115612f0d57612f0c612d44565b5b612f1682612a56565b9050602081019050919050565b6000612f36612f3184612ef2565b612da4565b905082815260208101848484011115612f5257612f51612d3f565b5b612f5d848285612df0565b509392505050565b600082601f830112612f7a57612f79612d3a565b5b8135612f8a848260208601612f23565b91505092915050565b60008060408385031215612faa57612fa9612942565b5b6000612fb885828601612b98565b925050602083013567ffffffffffffffff811115612fd957612fd8612947565b5b612fe585828601612f65565b9150509250929050565b6000806040838503121561300657613005612942565b5b600061301485828601612b98565b925050602061302585828601612b98565b9150509250929050565b7f4e487b7100000000000000000000000000000000000000000000000000000000600052602260045260246000fd5b6000600282049050600182168061307657607f821691505b6020821081036130895761308861302f565b5b50919050565b7f4552433732313a20617070726f76616c20746f2063757272656e74206f776e6560008201527f7200000000000000000000000000000000000000000000000000000000000000602082015250565b60006130eb602183612a12565b91506130f68261308f565b604082019050919050565b6000602082019050818103600083015261311a816130de565b9050919050565b7f4552433732313a20617070726f76652063616c6c6572206973206e6f7420746f60008201527f6b656e206f776e6572206f7220617070726f76656420666f7220616c6c000000602082015250565b600061317d603d83612a12565b915061318882613121565b604082019050919050565b600060208201905081810360008301526131ac81613170565b9050919050565b7f4e487b7100000000000000000000000000000000000000000000000000000000600052601160045260246000fd5b60006131ed82612ac2565b91506131f883612ac2565b9250827fffffffffffffffffffffffffffffffffffffffffffffffffffffffffffffffff0382111561322d5761322c6131b3565b5b828201905092915050565b7f4552433732313a2063616c6c6572206973206e6f7420746f6b656e206f776e6560008201527f72206f7220617070726f76656400000000000000000000000000000000000000602082015250565b6000613294602d83612a12565b915061329f82613238565b604082019050919050565b600060208201905081810360008301526132c381613287565b9050919050565b7f455243373231456e756d657261626c653a206f776e657220696e646578206f7560008201527f74206f6620626f756e6473000000000000000000000000000000000000000000602082015250565b6000613326602b83612a12565b9150613331826132ca565b604082019050919050565b6000602082019050818103600083015261335581613319565b9050919050565b7f455243373231456e756d657261626c653a20676c6f62616c20696e646578206f60008201527f7574206f6620626f756e64730000000000000000000000000000000000000000602082015250565b60006133b8602c83612a12565b91506133c38261335c565b604082019050919050565b600060208201905081810360008301526133e7816133ab565b9050919050565b7f4e487b7100000000000000000000000000000000000000000000000000000000600052603260045260246000fd5b7f4552433732313a20696e76616c696420746f6b656e2049440000000000000000600082015250565b6000613453601883612a12565b915061345e8261341d565b602082019050919050565b6000602082019050818103600083015261348281613446565b9050919050565b7f4552433732313a2061646472657373207a65726f206973206e6f74206120766160008201527f6c6964206f776e65720000000000000000000000000000000000000000000000602082015250565b60006134e5602983612a12565b91506134f082613489565b604082019050919050565b60006020820190508181036000830152613514816134d8565b9050919050565b7f4f776e61626c653a206e6577206f776e657220697320746865207a65726f206160008201527f6464726573730000000000000000000000000000000000000000000000000000602082015250565b6000613577602683612a12565b91506135828261351b565b604082019050919050565b600060208201905081810360008301526135a68161356a565b9050919050565b7f4552433732313a207472616e736665722066726f6d20696e636f72726563742060008201527f6f776e6572000000000000000000000000000000000000000000000000000000602082015250565b6000613609602583612a12565b9150613614826135ad565b604082019050919050565b60006020820190508181036000830152613638816135fc565b9050919050565b7f4552433732313a207472616e7366657220746f20746865207a65726f2061646460008201527f7265737300000000000000000000000000000000000000000000000000000000602082015250565b600061369b602483612a12565b91506136a68261363f565b604082019050919050565b600060208201905081810360008301526136ca8161368e565b9050919050565b7f4f776e61626c653a2063616c6c6572206973206e6f7420746865206f776e6572600082015250565b6000613707602083612a12565b9150613712826136d1565b602082019050919050565b60006020820190508181036000830152613736816136fa565b9050919050565b7f4552433732313a20617070726f766520746f2063616c6c657200000000000000600082015250565b6000613773601983612a12565b915061377e8261373d565b602082019050919050565b600060208201905081810360008301526137a281613766565b9050919050565b7f4552433732313a207472616e7366657220746f206e6f6e20455243373231526560008201527f63656976657220696d706c656d656e7465720000000000000000000000000000602082015250565b6000613805603283612a12565b9150613810826137a9565b604082019050919050565b60006020820190508181036000830152613834816137f8565b9050919050565b600081905092915050565b600061385182612a07565b61385b818561383b565b935061386b818560208601612a23565b80840191505092915050565b60006138838285613846565b915061388f8284613846565b91508190509392505050565b7f45524337323155524953746f726167653a2055524920736574206f66206e6f6e60008201527f6578697374656e7420746f6b656e000000000000000000000000000000000000602082015250565b60006138f7602e83612a12565b91506139028261389b565b604082019050919050565b60006020820190508181036000830152613926816138ea565b9050919050565b600081519050919050565b600082825260208201905092915050565b60006139548261392d565b61395e8185613938565b935061396e818560208601612a23565b61397781612a56565b840191505092915050565b60006080820190506139976000830187612b57565b6139a46020830186612b57565b6139b16040830185612bed565b81810360608301526139c38184613949565b905095945050505050565b6000815190506139dd81612978565b92915050565b6000602082840312156139f9576139f8612942565b5b6000613a07848285016139ce565b91505092915050565b7f455243373231456e756d657261626c653a20636f6e736563757469766520747260008201527f616e7366657273206e6f7420737570706f727465640000000000000000000000602082015250565b6000613a6c603583612a12565b9150613a7782613a10565b604082019050919050565b60006020820190508181036000830152613a9b81613a5f565b9050919050565b7f4e487b7100000000000000000000000000000000000000000000000000000000600052601260045260246000fd5b7f4552433732313a206d696e7420746f20746865207a65726f2061646472657373600082015250565b6000613b07602083612a12565b9150613b1282613ad1565b602082019050919050565b60006020820190508181036000830152613b3681613afa565b9050919050565b7f4552433732313a20746f6b656e20616c7265616479206d696e74656400000000600082015250565b6000613b73601c83612a12565b9150613b7e82613b3d565b602082019050919050565b60006020820190508181036000830152613ba281613b66565b9050919050565b6000613bb482612ac2565b9150613bbf83612ac2565b925082821015613bd257613bd16131b3565b5b828203905092915050565b7f4e487b7100000000000000000000000000000000000000000000000000000000600052603160045260246000fdfea2646970667358221220cc827d6337cd998c90ce316d4ce79fb0c5d06402ab9b87879c90b902d2ef977364736f6c634300080e0033",
	"immutableReferences": {},
	"source": "// SPDX-License-Identifier:MIT\npragma solidity ^0.8.4;\n\nimport \"./token/ERC721/ERC721.sol\";\nimport \"./token/ERC721/extensions/ERC721Enumerable.sol\";\nimport \"./token/ERC721/extensions/ERC721URIStorage.sol\";\nimport \"./token/ERC721/extensions/ERC721Burnable.sol\";\nimport \"./access/Ownable.sol\";\nimport \"./utils/Counters.sol\";\n\ncontract ArtGrowNFT is ERC721, ERC721Enumerable, ERC721URIStorage, ERC721Burnable, Ownable {\n    using Counters for Counters.Counter;\n\n    Counters.Counter private _tokenIdCounter;\n\n    struct tokenInfo{\n        uint256 listenCount;\n        uint256 tokenId; \n        address owner;\n\n    }\n\n\n    mapping(uint256=>tokenInfo) public _tokenInfoList;\n    tokenInfo[] public _tokenInfo;//  \n    \n\n\n    constructor() ERC721(\"ArtGrow\", \"ARG\") {}\n\n\n    function safeMint(address to, string memory uri) public onlyOwner {\n        uint256 tokenId = _tokenIdCounter.current();\n        _tokenIdCounter.increment();\n        _safeMint(to, tokenId);\n        _setTokenURI(tokenId, uri);\n\n        tokenInfo memory newtokenInfo = tokenInfo({\n            listenCount:0,\n            tokenId:tokenId,\n            owner:msg.sender\n        });\n     _tokenInfoList[tokenId]= newtokenInfo;   \n    }\n\n    // The following functions are overrides required by Solidity.\n\n    function listen(uint256 _tokenId) public{\n        _tokenInfoList[_tokenId].listenCount+=1;\n    }\n\n    function howmanyListen(uint256 _tokenId) public view returns(uint256){\n        return _tokenInfoList[_tokenId].listenCount;\n    }\n\n    function owner(uint256 _tokenId)public view returns(address)\n    {\n        return _tokenInfoList[_tokenId].owner;\n    }\n\n\n\n    function _beforeTokenTransfer(address from, address to, uint256 tokenId,uint256 batchSize)\n        internal\n        override(ERC721, ERC721Enumerable)\n    {\n        super._beforeTokenTransfer(from, to, tokenId,batchSize);\n    }\n\n    function _burn(uint256 tokenId) internal override(ERC721, ERC721URIStorage) {\n        super._burn(tokenId);\n    }\n\n    function tokenURI(uint256 tokenId)\n        public\n        view\n        override(ERC721, ERC721URIStorage)\n        returns (string memory)\n    {\n        return super.tokenURI(tokenId);\n    }\n\n    function supportsInterface(bytes4 interfaceId)\n        public\n        view\n        override(ERC721, ERC721Enumerable,ERC721URIStorage)\n        returns (bool)\n    {\n        return super.supportsInterface(interfaceId);\n    }\n}",
	"sourcePath": "C:\\Users\\paete\\NftMusic\\client\\truffle\\contracts\\ArtGrowNFT.sol",
	"compiler": {
		"name": "solc",
		"version": "0.8.14+commit.80d49f37.Emscripten.clang"
	},
	"schemaVersion": "3.4.13",
	"updatedAt": "2023-06-16T11:58:40.213Z",
	"devdoc": {
		"kind": "dev",
		"methods": {
			"approve(address,uint256)": {
				"details": "See {IERC721-approve}."
			},
			"balanceOf(address)": {
				"details": "See {IERC721-balanceOf}."
			},
			"burn(uint256)": {
				"details": "Burns `tokenId`. See {ERC721-_burn}. Requirements: - The caller must own `tokenId` or be an approved operator."
			},
			"getApproved(uint256)": {
				"details": "See {IERC721-getApproved}."
			},
			"isApprovedForAll(address,address)": {
				"details": "See {IERC721-isApprovedForAll}."
			},
			"name()": {
				"details": "See {IERC721Metadata-name}."
			},
			"owner()": {
				"details": "Returns the address of the current owner."
			},
			"ownerOf(uint256)": {
				"details": "See {IERC721-ownerOf}."
			},
			"renounceOwnership()": {
				"details": "Leaves the contract without owner. It will not be possible to call `onlyOwner` functions. Can only be called by the current owner. NOTE: Renouncing ownership will leave the contract without an owner, thereby disabling any functionality that is only available to the owner."
			},
			"safeTransferFrom(address,address,uint256)": {
				"details": "See {IERC721-safeTransferFrom}."
			},
			"safeTransferFrom(address,address,uint256,bytes)": {
				"details": "See {IERC721-safeTransferFrom}."
			},
			"setApprovalForAll(address,bool)": {
				"details": "See {IERC721-setApprovalForAll}."
			},
			"symbol()": {
				"details": "See {IERC721Metadata-symbol}."
			},
			"tokenByIndex(uint256)": {
				"details": "See {IERC721Enumerable-tokenByIndex}."
			},
			"tokenOfOwnerByIndex(address,uint256)": {
				"details": "See {IERC721Enumerable-tokenOfOwnerByIndex}."
			},
			"totalSupply()": {
				"details": "See {IERC721Enumerable-totalSupply}."
			},
			"transferFrom(address,address,uint256)": {
				"details": "See {IERC721-transferFrom}."
			},
			"transferOwnership(address)": {
				"details": "Transfers ownership of the contract to a new account (`newOwner`). Can only be called by the current owner."
			}
		},
		"version": 1
	},
	"userdoc": {
		"kind": "user",
		"methods": {},
		"version": 1
	}
}